:100AC500574154455220494E44494341544F5220C1
:100AD5000054414E4B203A20454D50545920005466
:100AE500414E4B203A20323525200054414E4B20B3
:100AF5003A20353025200054414E4B203A203735D9
:100B050025200054414E4B203A203130302520001D
:0E0B3200E4FFFE0FBF00010EBE04F8BFFCF58D
:010B40002292
:100B1500E4FFFEE4FDFC0DBD00010CED640B4C7023
:0C0B2500F50FBF00010EBE04EABFFCE7A4
:010B310022A1
:0C0B41008FA0C294D295120B32C29522F4
:0C0B4D008FA0D294D295120B32C29522D8
:1008000078097C007D007BFF7A0A79C57E007F1124
:10081000120A9F781A7C007D007BFF7A0A79D67EC7
:10082000007F0E120A9F78287C007D007BFF7A0AE9
:1008300079E47E007F0C120A9F78347C007D007B77
:10084000FF7A0A79F07E007F0C120A9F78407C00C4
:100850007D007BFF7A0A79FC7E007F0C120A9F786C
:100860004C7C007D007BFF7A0B79087E007F0D12A7
:100870000A9FE4F5A07F38120B417F10120B417FD5
:100880000C120B417F80120B41D2B0C290C291C2B8
:1008900092C29320903E20913B209238209335E4E1
:1008A000F50874092508F8E6FFFD3395E04D60076B
:1008B000120B4D050880EB7FC0120B41E4F5087464
:1008C0001A2508F8E6FFFD3395E04D60C6120B4D82
:1008D000050880EB309344E4F50874092508F8E630
:1008E000FFFD3395E04D6007120B4D050880EB7F4F
:1008F000C0120B41E4F508744C2508F8E6FFFD33FF
:1009000095E04D6007120B4D050880EB309384C2D3
:10091000B0120B15D2B0120B1580F1309238E4F5FD
:100920000874092508F8E6FFFD3395E04D600712CD
:100930000B4D050880EB7FC0120B41E4F5087440B5
:100940002508F8E6FFFD3395E04D70030208931289
:100950000B4D050880E8309138E4F5087409250846
:10096000F8E6FFFD3395E04D6007120B4D0508805A
:10097000EB7FC0120B41E4F50874342508F8E6FF5C
:10098000FD3395E04D7003020893120B4D0508806E
:10099000E8209003020893E4F50874092508F8E6B6
:1009A000FFFD3395E04D6007120B4D050880EB7F8E
:1009B000C0120B41E4F50874282508F8E6FFFD3362
:0F09C00095E04D7003020893120B4D050880E877
:03000000020B5997
:0C0B5900787FE4F6D8FD75815802080092
:1009CF00E709F608DFFA8046E709F208DFFA803E0A
:1009DF0088828C83E709F0A3DFFA8032E309F608F7
:1009EF00DFFA8078E309F208DFFA807088828C835F
:1009FF00E309F0A3DFFA806489828A83E0A3F60813
:100A0F00DFFA805889828A83E0A3F208DFFA804CEC
:100A1F0080D280FA80C680D4806980F280338010C3
:100A2F0080A680EA809A80A880DA80E280CA80332C
:100A3F0089828A83ECFAE493A3C8C582C8CCC583A4
:100A4F00CCF0A3C8C582C8CCC583CCDFE9DEE78074
:100A5F000D89828A83E493A3F608DFF9ECFAA9F0F3
:100A6F00EDFB2289828A83ECFAE0A3C8C582C8CC49
:100A7F00C583CCF0A3C8C582C8CCC583CCDFEADE62
:100A8F00E880DB89828A83E493A3F208DFF980CCC4
:100A9F0088F0EF60010E4E60C388F0ED2402B404BD
:100AAF000050B9F582EB2402B4040050AF23234564
:060ABF008223900A1F7360
:00000001FF
